:020000040800F2
:10000000000003205D0600081125000813250008E4
:100010001525000817250008192500080000000014
:1000200000000000000000000000000051820008F5
:100030001B25000800000000E1820008057B000885
:10004000AD060008AD060008AD060008AD060008C4
:10005000AD060008AD060008AD060008AD060008B4
:10006000AD060008AD060008AD060008AD060008A4
:10007000AD060008AD060008AD060008AD06000894
:10008000AD060008AD060008AD060008AD06000884
:10009000AD060008AD060008AD060008AD06000874
:1000A000AD060008AD060008AD060008AD06000864
:1000B000AD060008AD060008AD060008AD06000854
:1000C000AD060008AD060008AD060008AD06000844
:1000D000AD060008AD060008AD060008AD06000834
:1000E000AD060008AD060008AD060008AD06000824
:1000F000AD060008AD060008AD060008AD06000814
:10010000AD060008AD060008AD060008AD06000803
:10011000AD060008AD0600081D250008AD06000864
:10012000AD060008AD060008AD060008AD060008E3
:10013000AD060008AD060008AD060008AD060008D3
:10014000AD060008AD060008AD060008AD060008C3
:10015000AD060008AD060008AD060008AD060008B3
:10016000AD060008AD060008AD060008AD060008A3
:10017000AD060008AD060008AD060008000000004E
:10018000AD060008AD060008AD060008AD06000883
:10019000AD060008AD060008AD060008AD06000873
:0C01A00029250008AD06000835250008E0
:1001B00010B5054C237833B9044B13B10448AFF3A1
:1001C00000800123237010BD800300200000000088
:1001D000044F020808B5034B1BB103490348AFF3B2
:1001E000008008BD0000000084030020044F0208C6
:1001F00001F0FF01102A2BDB10F0070F08D010F8D8
:10020000013B013A8B422DD010F0070F42B3F6D1DB
:10021000F0B441EA012141EA014122F007047FF0F4
:1002200000070023F0E80256083C85EA010586EA4B
:10023000010685FA47F5A3FA87F586FA47F6A5FA87
:1002400087F68EB9EED1F0BC01F0FF0102F0070293
:1002500032B110F8013B013A83EA010313B1F8D13E
:100260000020704701387047002D06BF354603381F
:10027000073815F0010F07D1013015F4807F02BF58
:10028000013015F4C03F0130F0BC0138704700BFA9
:100290007BB972B90029BEBF00204FF0004106E0D3
:1002A00008BF00281CBF6FF000414FF0FF3000F086
:1002B000D3B9ADF1080C6DE904CE002909DB002BA0
:1002C0001ADB00F04DF8DDF804E0DDE9022304B0AC
:1002D0007047404261EB4101002B1BDB00F040F80E
:1002E000DDF804E0DDE9022304B0404261EB4101A6
:1002F000524263EB43037047524263EB430300F007
:100300002FF8DDF804E0DDE9022304B0404261EBA0
:1003100041017047524263EB430300F021F8DDF8DE
:1003200004E0DDE9022304B0524263EB430370476B
:1003300053B94AB9002908BF00281CBF4FF0FF314C
:100340004FF0FF3000F088B9ADF1080C6DE904CE34
:1003500000F006F8DDF804E0DDE9022304B07047A0
:100360002DE9F047089D8E4604468846002B4AD169
:100370008A42174662D9B2FA82F64EB1C6F120031C
:1003800001FA06F820FA03F3B74043EA0808B4403C
:100390004FEA174E1FFA87FCB8FBFEF1230C0EFB49
:1003A000118843EA084301FB0CF29A4209D9FB1871
:1003B00001F1FF3080F0EA809A4240F2E780023992
:1003C0003B449A1AA3B2B2FBFEF00EFB102243EAA2
:1003D000024300FB0CFC9C4509D9FB1800F1FF32DD
:1003E00080F0D6809C4540F2D3803B44023840EAFE
:1003F0000140A3EB0C0300211DB1F3400022C5E92D
:100400000032BDE8F0878B4205D90DB1C5E9000186
:1004100000210846F5E7B3FA83F1002946D1734578
:1004200002D3824200F20581841A6EEB030201209E
:100430009046002DE5D0C5E90048E2E7002A00F02B
:100440009080B2FA82F6002E40F0A4808A1A030C43
:100450004FEA174E80B2BCB20121B2FBFEFC0EFB8C
:100460001C2243EA024304FB0CF29A4207D9FB1810
:100470000CF1FF3802D29A4200F2E080C4469B1A87
:10048000B3FBFEF20EFB123340EA034302FB04F41B
:100490009C4207D9FB1802F1FF3002D29C4200F2C5
:1004A000CA8002461B1B42EA0C40A5E7C1F12006A8
:1004B0008B4022FA06F71F430EFA01F420FA06F3E6
:1004C0002EFA06FE4FEA1749234300FA01F81FFAF5
:1004D00087FCBEFBF9F01C0C09FB10EE44EA0E444D
:1004E00000FB0CFEA64502FA01F209D93C1900F105
:1004F000FF3A80F09C80A64540F2998002383C4447
:10050000A4EB0E041FFA83FEB4FBF9F309FB1344BA
:100510004EEA044403FB0CFCA44508D93C1903F142
:10052000FF3E80F08280A4457FD9023B3C4443EAF1
:100530000040A4EB0C04A0FB02EC64457346E146CA
:1005400062D35FD05DB1B8EB030264EB090404FA37
:1005500006F622FA01F31E43CC40C5E900640021EF
:100560004FE7B1FBF2FC010C41EA0E4180B240EAD8
:1005700001423B4638463C46B846BE462026B1FBC3
:10058000F7F1A2EB080241EA0C4166E7014618E7E1
:1005900010462CE7C6F120022EFA02F3B740B14014
:1005A00020FA02F24FEA174E0A43B3FBFEF8BCB240
:1005B0000EFB1833110C41EA034108FB04F9B0406B
:1005C00089454FEA104380B23ED9791808F1FF3CC3
:1005D00001D289451FD8A1EB0901B1FBFEF909FB46
:1005E00004F80EFB191192B242EA0142424529D2A7
:1005F000BA1809F1FF31C4D24245C2D2A9F10201B1
:100600003A44BEE7F0459DD2BEEB02036CEB070C0B
:100610000138E14696E7A7EB09094944A8F1020C25
:10062000B1FBFEF909FB04F8DBE773467FE75046B0
:1006300066E70846FDE63B44023A33E7ACF1020CBC
:100640003B441CE749469CE7A1EB0901C446B1FBCA
:10065000FEF909FB04F8C4E7704700BFDFF834D0A7
:10066000002103E00C4B5B58435004310B480C4B0A
:1006700042189A42F6D30B4A02E0002342F8043BA8
:10068000094B9A42F9D304F065FD23F0CDFE01F049
:10069000DDF8704700000320241D0808000000203A
:1006A0007401002080030020CC440120FEE7704745
:1006B00008B500F0B9FDBDE8084000F03DBD00F010
:1006C000B5BD704710B50421044622F0AFFC2046AA
:1006D00010BD000038B50C4B0C4C18800C4B822020
:1006E00019806368984740F6110398420AD1094D72
:1006F00023682C60822098472B688220DB6898470B
:10070000002038BD0120FCE7A60300205C0000208B
:10071000A4030020A80300204FF4A071F020FFF7ED
:10072000D9BF0000F7B5394D2B6804461B698220FC
:100730009847208000284ED02B680DF106025B6997
:1007400001A982209847324B1B78002B4BD0BDF873
:10075000062040F674639A423FD9ADF80630BDF8E2
:1007600006209B1A9BB20A2B42D90B22B3FBF2F351
:10077000284A1288934201D9013A93B2BDF8042065
:10078000254840F6B8318A4234D8C2F571620E323B
:10079000016892B20F25B2FBF5F2204D2D88AA42D6
:1007A00084BF05F1FF35AAB28A4215468EB22AD916
:1007B000921B91B21A4E3768BB42BAB28CBF9A1ADA
:1007C000D21A92B211440529C4BF05603360036890
:1007D00063803368A38003B0F0BDB32A9CBFB4220A
:1007E000ADF80620BBE7BDF80630A3F5B473B9E752
:1007F0000023C3E7C2F56D62083292B20E2A016887
:10080000C8D800252A46891A89B2D3E7A803002050
:10081000C8200020A4030020A0030020A60300207D
:100820009C03002037B568460D461446FFF77AFF53
:10083000BDF8000030B1BDF802302B60BDF80430C7
:100840002360012003B030BD032821D8DFE800F089
:10085000020B12190F4B1A68B2FA82F252090421E4
:100860000D4805F03DB90B4B5A68B2FA82F25209B5
:100870000821F5E7074B9A68B2FA82F25209102173
:10088000EEE7044BDA68B2FA82F252092021E7E778
:10089000704700BFAC03002000100240032821D89D
:1008A000DFE800F0020B12190F4B1A68003A18BF6C
:1008B000012204210D4805F013B90B4B5A68003A88
:1008C00018BF01220821F5E7074B9A68003A18BFC4
:1008D00001221021EEE7044BDA68003A18BF01222A
:1008E0002021E7E7704700BFAC0300200010024062
:1008F00003280DD8DFE800F00206080A04210548A5
:1009000005F0F3B80821FAE71021F8E72021F6E70F
:10091000704700BF0010024008B5032811D8DFE877
:1009200000F0020A0C0E0421074805F0D3F8431E1C
:100930005842584108BD0821F6E71021F4E720216C
:10094000F2E70020F3E700BF0010024070B5084D49
:1009500000240126E0B2FFF7DFFF18B12B68012B5E
:1009600018BF2E600134052C05F10405F2D170BDCD
:10097000AC030020012380F8781080F879307047AC
:100980007047002070470000034B4164003918BFD6
:1009900001211970704700BF8B370120704700207C
:1009A0007047836B0BB10846184770474FF6FF70CE
:1009B0007047406803689B691847704770477047E5
:1009C0007047704710B5044600F046FD23680349A0
:1009D000D3F890302046BDE810401847000000D002
:1009E00008B503680446D3F8843098472368204646
:1009F000DB6F984700F0ECF8236820465B6F984760
:100A0000292001F03DFA00F0E3F8236820465B6FEF
:100A10009847F8E710B504460AF0CAFA236820465A
:100A2000D3F8BC30BDE81040184700F0F9BC00F026
:100A3000FDBC00F02FBD00F0CFBC00F03FBD00F0CA
:100A400047BD00F0D3BC09F0E1BC10B584210446D9
:100A500022F0ECFA204610BD10B590F8341090F852
:100A600078400C4B8C421A7809D03AB90A4A0B49A3
:100A70001488088810800C8001221A7010BD002A8A
:100A8000FCD0054A05491488088810800C80002293
:100A9000F3E700BF8437012080370120823701202F
:100AA00070B50D46194635B9094B0A4A0A4840F255
:100AB000FF2123F0F7F9C0E90F52084B003A18BFA5
:100AC00001221A700368BDE87040D3F890301847CF
:100AD000744F0208AC4F0208FA4F02088A3701200F
:100AE00008B5094B1B888B4203D8084B1B889342DF
:100AF00005D9074B074A0848A32123F0D3F9074B30
:100B00001980074B1A8008BD8037012082370120E9
:100B10003F500208A2500208FA4F0208863701200F
:100B200088370120034690F87A0018B158680368A6
:100B30001B68184770470000012108B500220846CD
:100B400007F082F80A4B186028B90A4B0A4A282194
:100B50000A4823F0A7F900220421012007F01CF91C
:100B6000074B186018B9074B034A2C21F0E708BD62
:100B7000C0030020E55002082E5102085D51020812
:100B8000BC0300209F510208024B4FF0FF31186850
:100B900007F0A4B8C0030020014B186807F0CAB8DA
:100BA000C0030020024B0021186807F097B800BF6F
:100BB000C0030020FFF7F0BF03480449006800238A
:100BC0001A4607F024B900BFBC030020040000202F
:100BD00013B5084C00231A4601A9206807F048F90C
:100BE00020684FF0FF33002201A907F041F902B05D
:100BF00010BD00BFBC03002003685B6C18470120D8
:100C0000704703689B6A1847FEE740F2EF30704771
:100C1000054B0360054B4FF08062C3F88820BFF39B
:100C20004F8FBFF36F8F7047E85D020800E100E06F
:100C300010B504464FF45A61FFF7EAFF204622F050
:100C4000F5F9204610BD000082B0002301930E4B41
:100C50001A6B42F400021A631A6B02F4000201924A
:100C6000019A1A6942F400021A611A6922F4000218
:100C70001A61064B064A1A61064A5A61064B4FF042
:100C800080629A6002B07047003802406C220020F7
:100C9000E90E0008090C000800E100E008B50A2888
:100CA00009D8DFE800F006100E0808080810101038
:100CB0001000022008BD054B054A0648902123F08C
:100CC000F1F80020F6E70120F4E700BFE151020847
:100CD000FC5102084752020838B50C46887FFFF7DE
:100CE000DDFFA58AE28A164B2169586342EA054274
:100CF0005A64628BD963521B1A642568082D0ED181
:100D00009A611A615862207F0E4A42EA0062DA61F3
:100D1000E2681A620C4A5961D9601A6038BD002233
:100D2000D8611A61E1680A0A480902F4784200F4BD
:100D3000FC600243C1F3C4010A439A63034AECE72F
:100D400000B002400900010001230200012303005A
:100D500008B50B280BD8DFE800F00612100A0A0AC3
:100D60000A0808080808022008BD0520FCE7054B12
:100D7000054A06486F2123F095F80020F4E701208A
:100D8000F2E700BFE1510208875202084752020809
:100D90002DE9F04191F81D800C464046FFF7D8FF41
:100DA000A77F05463846FFF7D3FF06463846FFF7CC
:100DB00075FFA18A628B444B521A1A649A61228B86
:100DC000521A1A61E28A586342EA01425A6421695E
:100DD0006268D963DA602068802828D0227F0FD823
:100DE000202867D0402865D004281AD0364B45EA21
:100DF000026545F40035B845DD6161D0334A44E011
:100E0000B0F5807F04D0B0F5007FEFD1304800E02E
:100E1000304840EA0262DA61E2681A625E62596151
:100E200032E045EA026242F40032DA61F6E7A06895
:100E3000021DDA62227F45EA026545F40035DD6174
:100E40005E625961017841B1012921D0224B234AC8
:100E500023484FF48D7123F025F8DA69418822F494
:100E60007F42013922F0100242EA0122DA610121B7
:100E7000154BDA6942F02002DA61DA699206FCD495
:100E800010229A600029B9D0164A1A60BDE8F08194
:100E9000B2F1FF01DA69408822F47F4200F1FF30AD
:100EA00022F0100242EA002242F0100218BF012193
:100EB000DA61DDE745EA0262034B42F40032B4E74F
:100EC00042F20132E1E700BF00B00240012301001D
:100ED000090002000A000200D1520208EB52020887
:100EE0004752020801230200024B1B68586803683E
:100EF0005B6918478C37012070B5044625460A4BBC
:100F00000C30002660602672667245F8203B602235
:100F100029460AF0A3F904F55A63EE6024359D4290
:100F2000FBD1204670BD00BFE85D0208034B1A6884
:100F3000D207FCD423229A60704700BF00B0024061
:100F40007047000030B50F4C2568ED07FCD4232511
:100F50000904A56041F001010225FF2B656361646E
:100F6000E0630AD00849656241EA0363E361074B25
:100F700022626061E060236030BDE561039BA36392
:100F8000034BF8E700B00240090001000100020035
:100F90000100030030B50E4C2568ED07FCD4232575
:100FA0001204A56042F001020225FF2B6563626412
:100FB000E063E16008D01B0643F00213E361054BD8
:100FC00065626061236030BD034BE3610123F9E793
:100FD00000B0024001000200020002FF30B50B4CDD
:100FE0002568ED07FCD4232512041B06A56043F4F5
:100FF0000033022542F0010265636264E063E16050
:10100000E361034B65626061236030BD00B0024064
:1010100001000200012070474020704700EB811062
:101020000830704700EB811008307047012070478E
:1010300040F67830704740F6783303FB0100083003
:10104000704740F6783303FB0100083070470120F9
:1010500070471020704700EB01100830704700EB1C
:10106000011008307047084601F0CEBC10B5034BA4
:101070000360044608F021FF204610BDA05E020870
:1010800010B50446FFF7F2FF2046482121F0CEFFBD
:10109000204610BD10B5034B0360044608F00DFF59
:1010A000204610BD6C5E020810B50446FFF7F2FF43
:1010B00020464FF4386121F0B9FF204610BD0000F2
:1010C00010B5034B0360044608F0F7FE204610BD40
:1010D000385E020810B50446FFF7F2FF20461821DB
:1010E00021F0A4FF204610BD10B5084B0360044654
:1010F00000F6AC30FFF7BAFF04F12C00FFF7CAFF8F
:1011000004F11400FFF7DCFF204610BDD45E020896
:1011100008B50248FFF7E8FF08BD00BF9C12002099
:1011200010B50446FFF7E0FF204640F6545121F089
:101130007DFF204610BD00002DE9F34101F06EFA5D
:10114000054601F06FFA0024014623462846224650
:10115000009412F0B9FE274B274A1A60204602F08D
:10116000A5FB264D264B274A27489A6012F014FE0D
:101170002B68BFF35B8FDB0735D4284621F058FF7F
:1011800088B3224C224B236004F6F83604F1140095
:1011900004F12C0804F6AC376060C4F80880E760FE
:1011A000266108F08BFE1B4B6361404608F086FE0B
:1011B000194BE362384608F081FE184BC4F8AC3B8B
:1011C00004F6F43003F0B4F8224604F6F431304665
:1011D00002F0E6FB304601F017FC114822F080FED9
:1011E000284621F031FF0F4802B0BDE8F041FFF77B
:1011F000E9BB00BFF037012048040020981200200E
:10120000680400204C040020080000209C120020EC
:10121000D45E0208385E02086C5E0208A05E020816
:1012200011110008C4030020704700000148FFF7B7
:10123000D7BB00BFC403002070B5264E264C274DF7
:10124000274B23603046FFF757FE284617F042FF32
:10125000244810F017FB244B2448DC6000224FF494
:101260008071C3E9121222491A86C3E91A12214970
:1012700083F85820C3E91E011F49C3F880101F4995
:101280001F480B60F021C3E90422C3E90622C3E929
:101290000822C3E90A22C3E90E22C3E91022C3E9E6
:1012A0001422C3E917225A6683F870205A67C3E9EB
:1012B000016501801348018013484FF4A07101803B
:1012C0001248018012490A70012283F83420114A21
:1012D0001A6070BDF40400209412002068040020FD
:1012E000644F02084C040020C403002000000101E8
:1012F00001000001000450001A0014008C37012086
:10130000803701208637012082370120883701206D
:1013100084370120FC5C02080148FFF779BC00BF5C
:10132000F40400200020704781807047C18070471E
:10133000018170474181704770477047704770471F
:10134000704710B4C4880368121B84885B6D091B46
:1013500012B25DF8044B09B218474FF6FF73838150
:101360004FF0FF3303621368C361106070470020C1
:1013700070478B88838001207047704780F8261063
:10138000704790F82600704710B50022B1F9084068
:10139000B1F90A10028042808480C18010BD002211
:1013A000028042808280C28070470177704780ED62
:1013B000080A704780F82410704780F8251070479D
:1013C00001207047983070478C30704784307047E8
:1013D0007047704770470000034B902283F85A23F0
:1013E00083F85823704700BF00E100E0094A0A492A
:1013F000D3680A48C3F30A03013B9BB20B8011690F
:10140000C1F30A01013901801364536B43F00103F6
:101410005363704700680140F21F0020F01F002056
:10142000014BD3F8AC00704700680140024B012229
:10143000C3F8AC105A6270470068014010B52C2107
:10144000044621F0F3FD204610BD10B5BC21044632
:1014500021F0ECFD204610BD70B5044609F02BF8D4
:1014600023689D6E0EF05CFF01462046A847236866
:10147000054AD3F88C502046AC460023BDE87040A6
:10148000A2F51631604700BF00B004D008F0FABFE3
:1014900009F004B808F0C0BF09F02FB990F8252072
:1014A00012B103685B691847704790F825201AB19C
:1014B00090F8242002B1186070470000034B4FF0F1
:1014C00080629A604FF080729A60704700E100E09D
:1014D000084B4FF08062C3F88820BFF34F8FBFF3F3
:1014E0006F8F4FF08072C3F88820BFF34F8FBFF328
:1014F0006F8F704700E100E070B50023124E8380CB
:10150000124B0360336893F8582005460AB1D86C33
:1015100000B998680368DB6A98473368B0FA80F4CA
:10152000D86C640930B10368DB6A9847002808BFAB
:1015300044F001042CB9064B064A07482C2122F03E
:10154000B1FC284670BD00BF8C370120E85E020860
:101550002953020887530208C053020870B5254E6C
:101560003568BFF35B8F15F0010540D1304621F09F
:101570005FFD00283BD0204C204B256104F1340056
:10158000C4E90035C4E90255E584A562A58510F0DB
:101590005EFC04F158000BF017FB194BA3652046C5
:1015A000184B40F8843BFFF7A7FF174BC4F8843073
:1015B0002433C4F88C304FF4C803C4E92835002321
:1015C000C4F8AC30C4F8B030C4F8B430C4F8B830A3
:1015D0000E480F4BC4F89050C4F89C50C4F8A85063
:1015E000C4F8983022F07CFC304621F02DFD0248F2
:1015F00070BD00BFF41F0020F81F0020986702088C
:10160000085F0208805F02084C670208D5130008D3
:101610002C67020838B5184C23685BB3174B184A7F
:101620001B6C11888B4216D1164B198805F042F8B5
:10163000236893F86A200025013283F86A2083F832
:101640007C50FFF7B9FA206809F0B2FC2846BDE8E3
:101650003840FFF7F9B805F02DF8246823682046D4
:101660001B6A9847012384F87C300020BDE838408D
:10167000FFF714B938BD00BF8C3701200068014066
:10168000F21F0020F01F002007B5064BADF8060042
:101690001B68054801220DF1060105F0F7FD03B0B6
:1016A0005DF804FB0C0000200821002038B5084C30
:1016B000204603F043FE0A21204603F0D8FE2046D0
:1016C00003F028FF0546204603F0B6FE284638BD45
:1016D000FC22002038B5084C204603F02FFE0A21DA
:1016E000204603F0C4FE204603F014FF05462046C2
:1016F00003F0A2FE284638BDB42200202DE9F341B4
:10170000DFF8A880264E274FFFF7D0FF0546FFF7EA
:10171000E1FF294602460446404622F087FD322D6D
:101720001AD952238DF80730306800231A460DF17C
:10173000070106F06CFB642C1AD91B4855238DF861
:101740000730006800231A460DF1070106F05FFB21
:10175000642006F06DFAD7E7072D94BF4C234E2383
:101760008DF80730002330681A460DF10701E0E7D5
:10177000072C08D844238DF80730002338681A4610
:101780000DF10701E2E74E2307488DF807300023EB
:101790001A460DF10701006806F039FBEDE700BFBE
:1017A000C4200020BC200020C020002022540208B9
:1017B00030B595B0102200210AA822F08CFD142229
:1017C000002103A822F087FD00241E4B01941A6C0F
:1017D00042F080521A641B6C03F080530193019B0A
:1017E000194B02941A6842F440421A601B6803F4D1
:1017F000404302930122029B4FF48033CDE908233A
:1018000002254FF480030821CDE90E534FF4B47341
:10181000CDE9101308A804231393129504F0A2FF36
:1018200004F066FF0F23CDE903354FF4A0504FF4C9
:101830008053CDE90603052103A8059405F06EF950
:1018400015B030BD00380240007000402DE98048DE
:101850009BB003F08DFCFFF7ABFF142200210DA815
:1018600022F039FD0024C94B00941A6BC84842F09D
:1018700010021A631A6B02F010020092009A01948F
:101880001A6B42F020021A631A6B02F020020192D6
:10189000019A02941A6B42F080021A631A6B02F0EA
:1018A00080020292029A03941A6B42F004021A63B5
:1018B0001A6B02F004020392039A04941A6B42F02A
:1018C00001021A631A6B02F001020492049A059451
:1018D0001A6B42F002021A631A6B02F002020592BE
:1018E000059A06941A6B42F040021A631A6B02F0D2
:1018F00040020692069A07941A6B42F008021A6395
:101900001B6B03F00803224607933C21079B04F05E
:10191000E7F8A0480122022104F0E2F822469D489F
:10192000042104F0DDF822469B484FF4405104F0B6
:10193000D7F8224699484FF4005104F0D1F8012617
:101940003C23032592480F940DA90227CDE90D36BB
:10195000109503F0DBFF8F480DA9CDE90D764FF010
:101960000408CDE90F4403F0D1FF8A480DA9CDE961
:101970000D86CDE90F4703F0C9FF4FF44053864869
:101980000DA9CDE90D36CDE90F4703F0BFFF824821
:101990000F940DA9CDE90D8503F0B8FF4FF4005366
:1019A0007E480DA9CDE90D36CDE90F4403F0AEFF19
:1019B0000DA906237A480F94CDE90D3503F0A6FF53
:1019C0007848794B794D036003F096FEDFF8FCC14F
:1019D000774B2C62C5E900C328464FF48043C5E924
:1019E0000434C5E90244C5E9064404F087FA10212D
:1019F000284604F0CBFC2146284604F0E6FC6D4D59
:101A0000DFF8CCE1AC624FF48273C5E900E34FF438
:101A100000781823C5E9068328460A23C5E902444D
:101A2000C5E90444C5E90844EB6205F0D3FB8F2304
:101A30002246394657488DF824308DF8344004F05A
:101A40004FF832464FF47A7309A9284605F01EFC78
:101A50004FF47A7332460DA9284605F0C3FD32468D
:101A600039464C4804F03CF89DF83430D32B04BF81
:101A7000514B1E70514E524B0125C6E900354FF0B7
:101A8000100940230024C6E904934FF4C073C6E94B
:101A900006344FF40063C6E908344FF400534FF0A6
:101AA00002084FF0040A4FF0030BB3620DA907239D
:101AB00030460827CDE90FA3CDE90D83C6E9024AD8
:101AC000CDE911B8CDF84C8005F068FA4FF6FF72F9
:101AD00009A93046CDE90A75089409950C9405F0DA
:101AE0007DFA284603F070FB4FF6FF7209A93046D5
:101AF000CDE90987CDE90B5405F070FA4FF6FF7276
:101B000009A93046CDE909B7CDE90BA405F066FA7D
:101B10004FF40C730893089B0C934FF6FF7209A9BE
:101B20003046CDE909A70B9505F058FA40F26A5105
:101B3000304605F071FA342221460DEB020022F006
:101B4000CAFB204E204B3461C6E900340923C6E9A4
:101B500005351D23C6E9073B40F20D1240F2431341
:101B6000C6E9092340F2171140F247133046C6E98F
:101B70000B13C6E90244B48686F8364004F0B8FC7C
:101B8000FF21F022CDE9121424E000BF003802400A
:101B90000010024000080240000C02400018024001
:101BA00000000240AC220020003002401822002039
:101BB000A086010008210020C8200020D420002099
:101BC000400100A07021002000680140005C00403E
:101BD000005001404FF4806005214FF4A073CDE91F
:101BE0001401CDE90E240DA9CDE916423046224656
:101BF0004E4E1893CDE910380D94ADF864408DF831
:101C0000664004F029FD4A4B33601B68DFF87CA175
:101C100098473368474EDB689847474B3046C6E9DC
:101C20000034C6E90284C6E90A48C6E90C4403F058
:101C300073FD2946304603F025FE404E4A462146B4
:101C40000DA822F048FB3E4BB4604FF4803B304679
:101C5000C6E9003B3461347686F82040F462C6F869
:101C600028A0F460F56186F83040756103F0C0FA91
:101C70000DA93046CDE90D55324E0F9403F04EFCC0
:101C80004A4621460DA822F026FB2F4BB460304671
:101C9000C6E9003BC6E90AA43461347686F82040E0
:101CA000F460F56186F83040756103F0A1FA0DA982
:101CB0003046CDE90D850F9403F030FC2348244BCA
:101CC000036005F01FF9FEF7F3FCFEF7F0FC05F0EA
:101CD00027FF204A2946384606F05EF81E4B1F4A69
:101CE00018602946384606F057F81D4B1D4A186003
:101CF0002946384606F050F81B4B1C4A1860294606
:101D0000384606F049F81A4B1A4A186021461A4814
:101D100005F032FF194B1A4A18602146194805F0A0
:101D20002BFF194B186005F00DFFFEE7B4200020D3
:101D3000240000206C22002000B00240FC22002081
:101D400000200140B4220020002101406021002039
:101D5000000806500C600208C4200020F45F02084E
:101D6000C0200020DC5F0208BC200020C45F020805
:101D7000B820002048600208FD160008D02000208E
:101D800024600208BF060008CC2000200100000FDC
:101D9000704770477FB5094B8DF817201B68029379
:101DA0000DF117020123009201930A4601460448EF
:101DB00004F04CF907B05DF804FB00BF10000020F0
:101DC000182200207FB500238DF81730084B1B68C0
:101DD00002930A4601230DF1170100910193014678
:101DE000044804F0C3F99DF8170007B05DF804FB40
:101DF00010000020182200201FB5084C2468009213
:101E0000CDE901340A4601230146054804F0AEF944
:101E1000003818BF012004B010BD00BF1000002022
:101E20001822002003F0D0B910B5064C002220463D
:101E3000042103F055FE20460122BDE81040042194
:101E400003F04EBE0008024038B50B4D0446012297
:101E50000A484FF4005103F043FE002204212846B3
:101E600003F03EFE2046FFF70FFC28460122BDE8A6
:101E70003840042103F034BE00080240000C024048
:101E800038B50B4D044600220A484FF4005103F0C8
:101E900027FE00220421284603F022FE2046FFF7F9
:101EA000F3FB28460122BDE83840042103F018BEA8
:101EB00000080240000C0240F7B5144E144F0546CE
:101EC0000C4630460022042103F00AFE00224FF4A3
:101ED0000051384603F004FE2846FFF7D5FB0D4BB2
:101EE0000D481B68224601A905F07CFB38460122FB
:101EF0004FF40051019C03F0F3FD30460122042110
:101F000003F0EEFD204603B0F0BD00BF0008024024
:101F1000000C02400C0000200821002003F054B9FE
:101F20000268034B9A4201D103F03CB9704700BFED
:101F3000001000407047000082B00E4B002200925B
:101F4000596C41F480415964596C01F4804100910D
:101F500000990192196C41F0805119641B6C03F0D7
:101F600080530193019B0F216FF0010002B003F039
:101F700083BB00BF0038024010B514228AB004466B
:101F800000210DEB020022F0A6F923681E4A9342BD
:101F90001FD11E4B002101915A6C42F480725A6489
:101FA0005A6C02F480720192019A02911A6B42F00B
:101FB00001021A631B6B03F001030293029B0223CD
:101FC00005931348032305A9069303F09FFC0AB069
:101FD00010BD104A9342FAD10C4B002103915A6C68
:101FE00042F400725A645A6C02F400720392039A2B
:101FF00004911A6B42F001021A631B6B03F0010398
:102000000493049B0423DBE70020014000380240D6
:1020100000000240002101400268094B9A4282B050
:102020000BD100230193074B1A6B42F480521A63C1
:102030001B6B03F480530193019B02B0704700BFF8
:10204000003002400038024007B50F4B02689A4248
:1020500016D10022A3F5F0430192196B41F400015F
:1020600019631B6B03F40003019305215A20019BA4
:1020700003F002FB5A2003B05DF804EB03F02EBB23
:1020800003B05DF804FB00BF00B002402DE9F0434F
:10209000044689B01422002103A822F01CF922680A
:1020A000244B9A4243D1244C244800250095236BAD
:1020B00043F004032363236B03F004030093009BAA
:1020C0000195236B43F001032363236B03F00103AA
:1020D0000193019B4FF012094FF400734FF0010878
:1020E0000327042603A9CDE90339CDE9058707961F
:1020F00003F00CFC4FF480731148079603A9CDE957
:102100000339CDE9058703F001FC0295236C43F404
:1021100000032364236C03F400030293029B236AED
:1021200043F400032362236A23F40003236209B00B
:10213000BDE8F083005C0040003802400008024027
:1021400000000240F0B599B004461422002107A80F
:1021500022F0C1F830220DEB0200002122F0BBF882
:1021600022685E4B9A4240F0B78008230C93C0234C
:102170001093042312930CA84FF40033159304F02A
:1021800095FD08B1FFF7D6FE554B56480024009444
:102190005A6C42F080625A645A6C02F0806200927B
:1021A000009A01941A6B42F020021A631A6B02F033
:1021B00020020192019A02941A6B42F001021A6302
:1021C0001A6B02F001020292029A03941A6B42F017
:1021D00002021A631A6B02F002020392039A049439
:1021E0001A6B42F040021A631A6B02F0400204922A
:1021F000049A05941A6B42F004021A631A6B02F0F7
:1022000004020592059A06941A6B42F008021A63BA
:102210001B6B03F00803069302250E26069B0B9604
:102220004FF4806307A9CDE90735CDE9094503F0EF
:102230006DFB41F658032C480B9607A9CDE90735ED
:102240000927CDE9094503F061FB032327480B97D4
:1022500007A9CDE90735CDE9094503F057FB4FF450
:10226000706322480B9607A9CDE90735CDE90945EA
:1022700003F04CFB4FF40C631D480B9607A9CDE906
:102280000735CDE9094503F041FBC02319480B96FA
:1022900007A9CDE90735CDE9094503F037FB082348
:1022A00015480B9607A9CDE90735CDE9094503F097
:1022B0002DFB4FF4A0530E480B9707A9CDE9073526
:1022C000CDE9094503F022FB58202246052103F001
:1022D000D3F9582003F002FA19B0F0BD00680140AC
:1022E0000038024000140240000002400004024096
:1022F0000018024000080240000C02400268094B2E
:102300009A4282B00BD100230193074B5A6B42F0E3
:1023100040025A635B6B03F040030193019B02B0E0
:10232000704700BF000806500038024010B5044650
:1023300088B01422002103A821F0CDFF2268144B9D
:102340009A4223D103F56843002101915A6C114848
:1023500042F480125A645A6C02F480120192019A7B
:1023600002911A6B42F020021A631B6B03F02003E8
:102370000293029B4FF4607202230321CDE90323F1
:102380000523CDE9061303A903F0C0FA08B010BD78
:1023900000500140001402402DE9F04186B00023B6
:1023A00003932B4B1C68002C4FD14FF00108C3F84E
:1023B0000080284B00949A6B274842EA08029A63EF
:1023C0009B6B03EA08030093022703260C25009B5E
:1023D00001A94FF63F03CDE90137CDE9046503F0CC
:1023E00095FA1E48059501A9CDE90187CDE9034677
:1023F00003F08CFA48F233131948059501A9CDE989
:102400000137CDE9034603F081FA4FF6837315488F
:10241000059501A9CDE90137CDE9034603F076FA28
:102420004CF203731048059501A9CDE90137CDE9B8
:10243000034603F06BFA60230C48059501A9CDE92A
:102440000137CDE9034603F061FA06B0BDE8F0813B
:1024500044230020003802400014024000080240DB
:102460000018024000100240000C0240000402402C
:1024700070B588B000230293204B1A6C42F0100212
:102480001A641B6C03F010030293054601A903A80C
:10249000029B04F0EDFB069B4BBB04F0D9FB184EEE
:1024A000184B336040F2E733F360174BB0FBF3F3A4
:1024B000013B7360304600233361B360B36105F0C4
:1024C0005BFA044680B9304605F030F9044658B945
:1024D000362003F003F90F2D0DD822462946362069
:1024E00003F0CAF8094B1D60204608B070BD04F027
:1024F000AFFB4000D3E70124F6E700BF00380240FD
:10250000482300200010004040420F008C000020B3
:102510007047FEE7FEE7FEE7FEE77047014805F07B
:1025200043B900BF48230020014804F038B800BF79
:1025300070210020014803F01BB900BF6C2200206D
:102540000120704708B521F069FF162303604FF0A2
:10255000FF3008BD08B521F061FF16230360FEE7D8
:1025600070B50D4614460E46731B9C4201DC204696
:1025700070BDAFF3008006F8010BF5E770B50D46AE
:1025800014460E46731B9C4201DC204670BD16F8B3
:10259000010BAFF30080F5E74FF0FF3070474FF4C9
:1025A00000534B60002070470120704700207047A7
:1025B0000A4A116808B5034609B90949116010684B
:1025C000694603448B4206D921F028FF0C2303609F
:1025D0004FF0FF3008BD1360FCE700BF90230020E0
:1025E000D0440120704710B50421044620F01EFDA0
:1025F000204610BD012908B506D0022908D059B9D6
:1026000001F0A0F9006808BD01F09CF94068FAE704
:1026100001F098F98068F6E70020F4E70048704779
:10262000806002081220704713B5002451B103687E
:1026300001948DF8034001AA9C680DF10303A047A3
:1026400002B010BD0846FBE7C0897047008A70479A
:10265000C088704780887047807A00F07F0070479C
:10266000807AC00970470020704700009FED010A82
:10267000704700BF00000000806A7047704710B5C7
:102680000821044620F0D2FC204610BD7047704758
:1026900000F598730868496803C37047704770472E
:1026A0004160704770477047064BC0F84C310023BB
:1026B000C0F8503100F5A273C0F84801C0F84031AD
:1026C000704700BF4128000801230372704770471C
:1026D000704710B4C26841685410034601EB6200B1
:1026E000D20748BF0A599B685DF8044B48BFD358CE
:1026F00018470346406830B19A681AB9D86800F0A4
:10270000010070470120704710B50C21044620F0ED
:102710008DFC204610BD10B51021044620F086FC2B
:10272000204610BD10B54FF4AE71044620F07EFC7B
:10273000204610BD10B54021044620F077FC20460D
:1027400010BD10B50DF0ECFD0368BDE81040DB6B6B
:1027500018470000054B1B7801462BB1406818B1A3
:1027600003680C315B6E1847704700BF8B37012040
:10277000037A70B50546BBB940680368DB699847C2
:1027800004463CB96868036805F10C011B6EBDE89E
:1027900070401847A1886B8FC91A236820461B6BAD
:1027A00009B29847A469ECE770BD10B50446D0F8AB
:1027B000400158B10368DB68984738B1D4F840014C
:1027C00003689B6898470023C4F8403110BD70B57A
:1027D000044690F8390094F838300130C0B298427D
:1027E00084F8390005D901232372002384F8393095
:1027F00070BDB4F93A2000210FF092FFC30706D54F
:1028000000284FF6FF73C8BF0123184400B2238A83
:10281000C01AA08760680368DB69984705462DB930
:1028200060680368BDE870405B691847A988A38F9A
:1028300019442B6828461B6B09B29847AD69EEE72F
:102840002DE9F14FD0E9556A0746B06803681B6A65
:102850009847EF2805D8444B444AA321444821F027
:1028600021FB706803681B6A98470F2803D8414B07
:102870003E4AA421F2E7F06803681B6A98470B28D8
:1028800003D83D4B394AA521E8E70DF049FDDFF8B3
:10289000F09004300DF082FDD9F8000010B103680B
:1028A000DB689847D9F8000010B103681B689847A7
:1028B000DFF8D080D8F8000010B103685B69984752
:1028C000D7F83C0110B103685B689847D8F800005E
:1028D00010B103681B689847D7F83C0110B1036832
:1028E0009B689847F068036800215B6A98474FF03F
:1028F000000B224BC0F804B0044680F808B0036017
:10290000B068036859465B6A9847054601F004FDC4
:102910007068036859465B6A98472946064601F085
:10292000DBFC331DC7F83C61C9F80040C8F8005013
:10293000CAF800302B68C6F808A02846DB68EE63AA
:102940009847336830461B689847214628460FF061
:10295000E1FE236820461B69984723685B6920468F
:1029600001B0BDE8F04F18476D540208FB5402084F
:10297000D35502081A560208BD5602086C620208B6
:10298000D4370120D0370120044B1B6893F858201E
:102990000AB1D86C00B99868704700BF8C37012025
:1029A000F8B5174604460E460DF0C6FD124B1C60E6
:1029B000124B2360124B0025C4E95135114BC4E979
:1029C00053551868036801219B68C4E94F55C4E951
:1029D00055769847284600F069FFFFF7D5FF18F0B5
:1029E00022FAFFF7D1FF18F099FAFFF7CDFF18F0A0
:1029F000A1FA2046F8BD00BFE037012018620208A6
:102A0000006202088C370120064BC0F84C310023CD
:102A1000C0F8503100F5A273C0F84801C0F8403149
:102A2000704700BF41280008064BC0F84C31002316
:102A3000C0F8503100F5A273C0F84801C0F8403129
:102A4000704700BF192C0008064BC0F84C3100231A
:102A5000C0F8503100F5A273C0F84801C0F8403109
:102A6000704700BFDD2A00082DE9F0410546002629
:102A7000164B4660067245F80C3B044628460F4646
:102A80000AF04AF9124B84F838701B7884F83960E0
:102A9000A68723B9012323722046BDE8F0810D4BA0
:102AA0000D4FB3F90080E368B7F900109B6B266106
:102AB00028469847E3684146DB6B284698472846F6
:102AC0000AF0A5F83B885B426387E5E7906202085D
:102AD0008B37012082370120803701202DE9F04714
:102AE000D0E9556A0746B06803681B6A984740F604
:102AF0007733984205D8414B414AA321414821F000
:102B0000D1F9706803681B6A98470F2803D83E4BB9
:102B10003B4AA421F2E7F06803681B6A98473F2804
:102B200003D83A4B364AA521E8E70DF0F9FBDFF868
:102B3000E09004300DF032FCD9F8000010B10368C9
:102B4000DB689847D9F8000010B103681B68984704
:102B5000DFF8C080D8F8000010B103685B699847BF
:102B6000D7F83C0110B103685B689847D8F80000BB
:102B700010B103681B689847D7F83C0110B103688F
:102B80009B689847F068036800215B6A98471421A6
:102B90000446FFF769FFB068036800215B6A984745
:102BA000054600F081FF7068036800215B6A984762
:102BB0002946064600F00CFF331DC7F83C61C9F8F2
:102BC0000040C8F80050CAF800302B68C6F808A0CA
:102BD0002846DB68EE639847336830461B689847A1
:102BE000214628460FF096FD236820461B6998472A
:102BF000236820465B69BDE8F04718476D5402081A
:102C000060570208D35502081A560208BD5602083A
:102C1000D4370120D03701202DE9F047D0E9556A9B
:102C20000746B06803681B6A9847EF2805D8414BF0
:102C3000414AA321414821F035F9706803681B6AB5
:102C400098470F2803D83E4B3B4AA421F2E7F0688F
:102C500003681B6A98473F2803D83A4B364AA52198
:102C6000E8E70DF05DFBDFF8E09004300DF096FB37
:102C7000D9F8000010B10368DB689847D9F8000064
:102C800010B103681B689847DFF8C080D8F80000CF
:102C900010B103685B699847D7F83C0110B103682D
:102CA0005B689847D8F8000010B103681B68984724
:102CB000D7F83C0110B103689B689847F068036837
:102CC00000215B6A984714210446FFF7CDFEB068E7
:102CD000036800215B6A9847054601F01DFB706898
:102CE000036800215B6A98472946064601F0F4FA1A
:102CF000331DC7F83C61C9F80040C8F80050CAF855
:102D000000302B68C6F808A02846DB68EE639847B9
:102D1000336830461B689847214628460FF0FAFC76
:102D2000236820461B699847236820465B69BDE8F5
:102D3000F04718476D5402084B580208D355020853
:102D40001A560208BD560208D4370120D037012098
:102D50007047704770477047704730B5036885B05B
:102D60006D460181D3F884300146044628469847D1
:102D700095E807003C3484E8070005B030BD30B565
:102D8000036885B06D464181D3F88430014604461E
:102D90002846984795E807003C3484E8070005B0CA
:102DA00030BD0022028042808280C280704780F85D
:102DB0003610704770B5036804461B6B154698477C
:102DC0002368294620465B6EBDE870401847002006
:102DD0007047806C7047704770477047704730B4D9
:102DE000C26844685510034604EB6200D20748BF2E
:102DF00062599B6830BC48BFD358184703464068A7
:102E000030B19A681AB9D86800F001007047012003
:102E1000704710B54C21044620F008F9204610BD3B
:102E200010B51021044620F001F9204610BD10B560
:102E30004FF44071044620F0F9F8204610BD08B563
:102E4000FEF72CFB08BD0000036870B55E6B124BEB
:102E50001B6804468DB22BB9104B114A6C211148E6
:102E600021F020F81049828D0988914203D80F4B38
:102E70000B4A6D21F3E713F812200D4B1B6853F832
:102E8000220003681B6B9847291A3346204609B273
:102E9000BDE87040184700BFE437012036590208EA
:102EA00078590208B3590208E8370120FA59020894
:102EB000EC3701209830884208B505D10DF030FA82
:102EC000BDE80840FFF7B0BD08BD00224FF0FF315C
:102ED000C0E900218260704770B5036804461B6B2F
:102EE000154698472368294620465B6BBDE870402D
:102EF000184770B504461D46BDF91060FFF7ECFF9A
:102F00002368294620469B6B984723683146204614
:102F1000DB6BBDE8704018470022C0E90122C0E920
:102F20000322C0E90522C0E907224FF4807282849F
:102F3000014A0260704700BFB462020838B5262219
:102F400004460D46002121F0C6F92046FFF7E4FFB4
:102F5000064B23602B88E384FF23204684F8283027
:102F600029460AF0FAFC204638BD00BF406A020834
:102F7000F8B5194B018F1B888B4206462AD9174B8F
:102F80001B682BB9164B174A17486C2120F08AFF93
:102F900013F81120154B1B6853F82250144B186876
:102FA00000F0C0FC2B6807469B6B284698472B68AF
:102FB00004469B6C3946284698472B6814FB00F45E
:102FC0005B6A394628469847A4B223181BB2A6F874
:102FD0004630F8BD0023FAE7E8370120E437012046
:102FE0003659020878590208B3590208EC37012013
:102FF000F037012010B526220446002121F06BF99C
:103000002046FFF789FF0A4B23600A4BA3624FF665
:10301000FF73A3854FF47F020023C4E90C3223879A
:103020004FF0FF32C4E91023E363204610BD00BF18
:1030300048690208F06102082DE9F04F044693B098
:10304000A04600250FF0BAF9984BE56348F8403BDD
:1030500026222946404621F03EF94046FFF75CFF14
:10306000934B236404F16C0BFF234FF6FF7604F1BE
:10307000980A84F8663010A95846A56604F1E0095C
:10308000ADF84060FFF75AFF50460AF09DFD4846F4
:103090000AF09AFD04F5947310A918460793ADF849
:1030A0004060FFF74BFF04F5AA7310A91846089378
:1030B000ADF84060FFF742FF04F5C07310A9184651
:1030C0000993ADF84060FFF739FF04F5D673184651
:1030D000784F0593FFF78EFF04F5FC73C4F8AC71CD
:1030E0001846C4F8F4510693FFF784FF04F51173F2
:1030F000C4F8F8711846C4F840520393FFF77AFFFA
:1031000004F5237310A918460493ADF84060FFF747
:1031100015FF694BC4F88C324FF0FF370123C4E927
:10312000AF73664BC4F8B852C4E9BC34644B84F83E
:10313000C452C4E9BE354FF4A0732A4640460093FA
:103140002946F023FFF7D5FE261D4FF07F43A366E7
:103150004146304606F0C4FE2A4658462946FFF747
:10316000BBFE584610A9ADF840500AF0F6FB594690
:10317000304606F0B5FE5046BD222321FFF7ACFED7
:103180004FF0020810AA0FA950464FF0030BADF8FC
:103190003C80ADF840B00AF0AEFA05235046A4F8E2
:1031A000D030FFF7E5FE04F53C73C4F8C03051465B
:1031B0003046C4E9357706F093FE4846BD22232108
:1031C000FFF78AFE10AA0FA94846ADF83C80ADF87B
:1031D00040B00AF090FA4FF00103A4F818314846C5
:1031E000FFF7C6FE49463046C4E9477706F078FE49
:1031F00001220798CC21FFF76FFE4FF00D090798C9
:10320000ADF8409010A90AF0A8FB0799304606F0E7
:1032100067FE01220898A921FFF75EFE0898ADF825
:10322000409010A90AF099FB0899304606F058FE24
:10323000012209988621FFF74FFE0998ADF84090CA
:1032400010A90AF08AFB0999304606F049FE1D23B1
:1032500004220598009307216023FFF74AFED4F863
:10326000AC310599D3F88430C4F8DC710DF128092C
:103270004846A4F8E051984799E8070004F5F4732C
:1032800083E807000F4B1B6804F5327A2BB90E4B0D
:103290000E4A60210E4820F005FE0E4B1B88022BC3
:1032A0001CD80D4B094A6121F4E700BFC463020832
:1032B000D86902081C630208CC680208AC630208E3
:1032C000B52E0008E437012036590208385A0208A2
:1032D000B3590208E8370120FA590208414B414628
:1032E0001868DFF8088100F01DFB3F4A03460A21F9
:1032F000504610F043FD04230598C4F8F4A110A92A
:10330000ADF844304FF0220ACDF840800AF096F92B
:103310000599304606F0E4FD0698CDF800A073222A
:103320002946F023FFF7E5FDD4F8F8310699D3F8E4
:103330008430C4F828724846A4F82C52984799E87B
:10334000070004F50D7383E8070004F53773C4F82C
:1033500040320698A4F8DC5210A9CDF84080ADF8B0
:1033600044B00AF06BF90699304606F0B9FD0398AF
:10337000CDF800A0F02373222946FFF7BAFD039988
:10338000C4F874724846A4F8785209F0AFFE99E880
:10339000070004F5207383E807000398CDF8408008
:1033A00010A9ADF844500AF049F90399304606F0E7
:1033B00097FD04980122D021FFF78EFD0A22049880
:1033C000092109F097FD0498012109F0A6FD304676
:1033D000049984F8B45206F083FD204613B0BDE88A
:1033E000F08F00BFF0370120835A0208F061020815
:1033F000406A7047806A704770478A880B8810B5AA
:10340000D20A4C88C1699BB251F8220043EA0443B6
:10341000184410BD10B50446BAB1107B68B1537B97
:10342000D27A1B0203F4E0631A43236A03EB82039C
:103430001A888A4202D193F9020010BD05D80138DA
:1034400080B204330028F3D1F7E70020F5E710B588
:103450002C2104461FF0EAFD204610BD30B58BB08C
:103460000446BDF860500895BDF85C5007959DF87E
:10347000505006959DF84C5005959DF84850049580
:103480009DF8445003959DF8405002959DF83C509E
:103490000195BDF8385000950EF096FD064B23605F
:1034A000159BE361169B2362199B63621A9BA362BF
:1034B00020460BB030BD00BFF8630208704770476C
:1034C000704730B4C26844685510034604EB62008C
:1034D000D20748BF62599B6830BC48BFD3581847D1
:1034E0000346406830B19A681AB9D86800F0010004
:1034F00070470120704710B5102104461FF096FD5B
:10350000204610BD10B5F02104461FF08FFD204667
:1035100010BD9830884208B505D10CF001FFBDE818
:103520000840FFF791BA08BD2DE9F34104460EF0BB
:1035300045FF444B2360444B0025C4E910354FF44C
:103540008072FF2304F16C07A4F8642084F86630CD
:10355000A4F890204FF6FF733C4AE26604F1980607
:10356000A4F8923084F8943001A9C4E91255C4E952
:103570001455C4E91655C4E91C55C4E91E55C4E9DF
:103580002055C4E92255E5632566A5663846ADF8A1
:1035900004300AF0E2F930460AF016FB2C4BC4E97D
:1035A00038342C4B04F14008C4E93A352A46294600
:1035B0004046FFF791FC4046F021FDF7B9FE40463A
:1035C0004FF4A071FDF7B6FE251D4FF07F43A366B3
:1035D0004146284606F084FC1B2238461421FFF79A
:1035E0007BFC112301A93846ADF804300AF0B5F987
:1035F0003946284606F074FC3046BB222321FFF7EB
:103600006BFC022301AA6946ADF800303046032363
:10361000ADF804300AF06FF80623A4F8D030304635
:10362000FFF7A6FC4FF0FF33C4E9353304F1E003A4
:103630002846C4F8C030314606F052FC204602B09D
:10364000BDE8F08178640208D8690208406A02087F
:1036500060640208133500087047000030B5164D4D
:103660002C6814F001048FB0BFF35B8F20D1284683
:103670001FF0DEFCE0B13F230993104B0893104B81
:10368000104911480A940122CDE906430423CDE9EB
:1036900003320A230093CDE90B44CDE9014405949C
:1036A000FFF7DCFE094820F01BFC28461FF0CCFC8D
:1036B00005480FB030BD00BF94230020D882020817
:1036C000088302083C81020898230020593600082C
:1036D0007047000030B5164D2C6814F001048FB00F
:1036E000BFF35B8F21D128461FF0A2FCE8B13F2336
:1036F0000993104B0893104B104911480A94CDE9D7
:10370000064301220423CDE90332182300931B2230
:10371000CDE90B44CDE901440594FFF79FFE09482C
:1037200020F0DEFB28461FF08FFC05480FB030BDAF
:10373000C4230020DC8202080C8302084C810208AA
:10374000C8230020D13600087047000030B5164D60
:103750002C6814F001048FB0BFF35B8F20D1284692
:103760001FF066FCE0B13F230993104B0893104B08
:10377000104911480A940122CDE906430423CDE9FA
:10378000033228230093CDE90B44CDE9014405948D
:10379000FFF764FE094820F0A3FB28461FF054FC05
:1037A00005480FB030BD00BFF42300200483020899
:1037B00010830208C8820208F82300204937000855
:1037C00000207047002070470EB403B503AB002102
:1037D00053F8042B01930DF075FE02B05DF804EB75
:1037E00003B070470CB407B504AB53F8042B019336
:1037F0000DF068FE03B05DF804EB02B07047000006
:10380000436C10B5044673B3038F2BB9184B194A98
:10381000C521194820F046FBC38E00EB43035B8CA7
:103820000BB30FF002FD238F012B03D8134B144A67
:10383000CB21EEE7E28E531C9BB2092B194688BFC1
:10384000A3F10A0104EB410140F63F10498C81428B
:1038500009D10A2B04EB420228BF002304EB4303E7
:10386000508C588451842046BDE810400FF0E0BBD6
:10387000865A02088F5A02083A5B0208845B0208E3
:10388000925B02080FF09BBB10B586B002AC84E8D7
:1038900006001A460AAB05930193099B0093214643
:1038A000089B0CF0DBF806B010BD000038B518BB63
:1038B000124B13481C681349B4B1226822440260B9
:1038C000626822440A60A26814440F4B00221A80E6
:1038D00000F038F8054600F033F80C4B1C600C4B38
:1038E0001D600C4B188007E00B4B03600B4B0B600B
:1038F0000B4B1C68002CE8D138BD00BF30240020E1
:1039000028240020242400202C240020E437012037
:10391000EC370120E83701203083020814830208C5
:1039200084830208044B1B6853F82100034B1B6877
:1039300003EB4000704700BF24240020282400200F
:1039400007207047004870473424002010B5FFF767
:10395000C1FE044C2060FFF7F9FE6060FFF77EFEB9
:10396000A06010BD3424002010B5002404600C6059
:1039700014601C6010BD704710B54FF4AE71044662
:103980001FF054FB204610BD10B50446D0F8580176
:1039900000F0D1FC2046BDE810400CF05DBD0000F9
:1039A00010B50446FEF7FCFF014B2360204610BD16
:1039B000AC640208704704387047704710B5102196
:1039C00004461FF033FB204610BDA0F10400F5E7CC
:1039D00000228260024A026018324260C160704771
:1039E0000065020810B50D4C206818B104F008F904
:1039F000002323600A4B01221A600A4A0023137035
:103A0000094A1370094A1370094A1370094A9380CE
:103A100003239385084BD36010BD00BF44240020CE
:103A20001C000020512400204A24002049240020AA
:103A300040240020F42900206400C800134B70B516
:103A4000044603604FF4326540F66816B54205D06F
:103A5000635960191B6898472C3DF7E76359601953
:103A60001B682C3D9847B5F5F66FF7D14FF4F46518
:103A7000635960191B683C3D9847B5F53C7FF7D109
:103A80002046FFF7AAF9204670BD00BF286502084E
:103A900010B50446FFF7D2FF204640F678311FF0FC
:103AA000C5FA204610BD00002DE9F04F05468DB047
:103AB000FFF7C2FA05F5407A774B2B604FF6FF7798
:103AC00069465046ADF80070FFF738FA05F54B79B6
:103AD000DFF8CCB105F2DC784C460026204669467A
:103AE000ADF80070FFF72AFA0123C4F800B0E662CF
:103AF0002786678684F8343084F8356084F8366029
:103B000084F8376084F838603C344445E6D105F6E3
:103B1000941B26464FF6FF77304669462C36ADF8A3
:103B20000070FFF70BFA5E45F6D1D84605F64C3724
:103B30004FF6FF764046694608F12C08ADF8006064
:103B4000FFF7FCF9B845F5D169464046ADF800608D
:103B5000524EFFF7F3F9684600F0E4FCBDF804307C
:103B6000B380BDF91C30039AB383089BF2603362C3
:103B7000049A099B32617362059A0A9B72612F1D38
:103B8000069AB3626846BDF82C30B385B26100F086
:103B9000DBFC384605F1980106F0E3F9384605F5F7
:103BA000FC7106F0DEF9384605F1E00106F0D9F9BE
:103BB000384605F5117106F0D4F9384605F16C0167
:103BC00006F0CFF9002269464046ADF8002009F022
:103BD000C4FE002211464046FFF77EF9002285F818
:103BE000712B3846414606F07BF90F236946504653
:103BF000ADF8003009F0B1FEB6F90E20B6F90C10A0
:103C00005046FFF769F93846514606F069F905272D
:103C100004F5DC76212240F241113046FFF75CF9D1
:103C2000D4F8B83169461B6EADF80070304698473D
:103C30002046212240F24111FFF74EF9236801226C
:103C40001B6EADF80020204669462C3498475C4531
:103C5000DED100240326B4FBF6F303EB4303E31A9F
:103C6000012B13D0022B14D008220721484609F05B
:103C700041F901344846142109F04FF9142C09F197
:103C80003C09E8D128460DB0BDE8F08F0A22092191
:103C9000ECE70C220B21E9E728650208F429002053
:103CA000CC6802082DE9F041051D00F5D6780446E0
:103CB0004146284604F5C07706F053F941462846A8
:103CC00006F00EF93946284604F5AA7606F049F9B9
:103CD0003946284606F004F93146284606F041F9EF
:103CE00004F594743146284606F0FAF82146284631
:103CF00006F037F92146284606F0F2F840460DF066
:103D00000BFD38460DF008FD30460DF005FD204650
:103D1000BDE8F0410DF000BD2DE9F04F4A4E8FB0E7
:103D20000446306804F0D4F80546002D40F0828047
:103D30009DF81280454DB8F1010F2BD1DFF8249189
:103D400099F80030002B4DD1261D04F19807394613
:103D5000304606F0C5F804F5FC7AAB883C4A0A21E7
:103D600004F5377010F00AF85146304606F0B8F8FE
:103D700038460DF0D1FC50460DF0CEFC30460DF02B
:103D8000CBFC344B89F8008083F80080324B1868F4
:103D900003F036FF9DF81230022B23D1DFF8C480E8
:103DA00098F80030F3B9261D04F1E0073946304693
:103DB00004F5117906F094F84946304606F090F87B
:103DC00038460DF0A9FC48460DF0A6FC30460DF033
:103DD000A3FC204A0123137088F800301E4B18689A
:103DE00003F00EFF1D4F4FF0000838688DF8138068
:103DF00004F06EF804F54076002843D04FF0FF330E
:103E0000386842460DF1130104F032F89DF8133082
:103E1000522B29D1B5F92810114800F015FC1023B8
:103E2000304605A9ADF8143009F097FD386804F064
:103E300051F827E0002330681A460DF1120104F012
:103E400017F8013D71E700BFB8200020F4290020D9
:103E5000645C02084924002044240020C42000207F
:103E6000FC290020402400204E2B40F05481C14802
:103E7000414600F0E9FB0F2305A93046ADF81430A8
:103E800009F06BFDBC4FDFF82C83386804F020F894
:103E9000A8B14FF0FF33386800220DF1130103F091
:103EA000E7FF9DF81330552B40F03D81B148B5F93F
:103EB000281000F0CBFBD8F8000004F00BF8D8F87D
:103EC000000004F005F8B0B14FF0FF33D8F800005F
:103ED00000220DF1130103F0CBFF9DF81330442BAA
:103EE00040F02981A96AA348494209B200F0AEFB1B
:103EF000386803F0EFFF3046B5F90E20B5F90C1025
:103F00009E4FFDF71EFA04F2DC7904F6941B4E4630
:103F100004F10408B7F91030022B00F01481042BCF
:103F200000F02281012B07D13368B7F906209B6D81
:103F3000B7F90410304698472C365E4507F128073C
:103F4000E8D18F4F5E4604F64C3A04F10408B7F905
:103F50001030022B00F03081042B00F03E81012B49
:103F600007D13368B7F906209B6DB7F904103046C6
:103F700098472C36564507F12807E8D104F5966393
:103F800004F54B7A03937F4ECDF804A0231DA04681
:103F90000293B6F91030022B00F02581042B00F0BB
:103FA0003D81012B08D1D8F82C33B6F906209B6D42
:103FB000B6F9041001989847019B3C330193039B89
:103FC00008F13C08984506F12006E2D16E4AB5F9A1
:103FD0002C3011788B4204F1040616D0DBB213703A
:103FE000502284F8502184F87C2184F8A821002BE9
:103FF00000F01F81FF22012B84F8502105D0022BF5
:1040000084F87C2118BF84F8A821AB885F4A0A2174
:1040100004F532700FF0B2FE30460DF07DFB94F8DF
:104020000C31002B74D05A4D286818B103F0E8FD0C
:1040300000232B60574B02221A60574A002313704B
:10404000564A1370564A1370564A1370012384F867
:10405000713B04F64C300DF05FFB642003F0E8FD8B
:104060002046FFF71FFE00F021FD04F2DC775146E9
:1040700030460AF13C0A05F074FFBA45F7D14946CB
:10408000304605F06EFF09F5DC71304609F12C0968
:1040900005F067FFD945F2D104F1E00804F5117786
:1040A0004146304605F05DFF3946304605F059FF80
:1040B00040460DF031FB38460DF02EFB30460DF03A
:1040C0002BFB04F5C0700DF027FB04F5AA700DF072
:1040D00023FB04F594700DF01FFB04F5D6700DF072
:1040E0001BFB0024304B8DF812402022214606A8ED
:1040F0001C6020F0F0F82D4B05934FF480421823FC
:10410000CDE90A232A4805AA214603F035FD286097
:104110000FB0BDE8F08FA96A1648494209B200F015
:1041200093FA0E237CE64E2B7FF4C9AE1148002192
:1041300000F08CFAC3E64E2B7FF4DDAE0D48002173
:1041400000F084FAD7E63368B7F906209B6DB7F91B
:104150000410304698473146404605F0C1FE012123
:10416000384600F0B5F9E7E63146404605F0F9FE7D
:104170000321F5E7FC290020C0200020642800204E
:10418000D42600205424002014000020645C02087F
:10419000442400201C000020512400204A24002038
:1041A000492400204024002020000020675C0208F1
:1041B00021480008BC2000203368B7F906209B6D19
:1041C000B7F90410304698473146404605F088FE5E
:1041D0000121384600F07CF9CBE63146404605F037
:1041E000C0FE0321F5E7D8F82C33B6F906209B6D05
:1041F000B6F9041001989847D8F82C3301985B6EF3
:104200001F4601231A460021B847DDE9011005F0D9
:1042100067FE0121304600F05BF9CDE6D8F82C337B
:1042200001989B6E9847DDE9011005F09AFE032185
:10423000F0E730460DF070FAE7E600BF10B504462F
:104240008AB0FEF7CBFD012384F8713B04F64C30B5
:104250000DF062FA2046124CFFF724FD206803F0AF
:10426000CFFC104B186803F035FE2022002102A875
:1042700020F031F80C4B01934FF480421823CDE924
:104280000623002101AA094803F076FC084A2060B1
:1042900000231370074A1370074A13700AB010BD49
:1042A00044240020B8200020675C02082148000850
:1042B0004A2400204924002040240020704704386C
:1042C0007047704710B5102104461EF0AFFE20461F
:1042D00010BDA0F10400F5E700228260024A0260EE
:1042E00018324260C16070475C6502087047000088
:1042F00010B5034B03600446FFF7E1F8204610BDFC
:104300008465020810B50446FFF7F2FF2046F0214D
:104310001EF08CFE204610BD10B50446FFF704F9D0
:10432000014B2360204610BD84650208FFF7C8B822
:10433000002202607047704710B5034B03600446CB
:1043400000F0B1F8204610BDB865020810B504466B
:10435000FFF7F2FF204628211EF068FE204610BD20
:1043600010B5044600F0AAF8064B23604FF4C8735A
:1043700063624FF018110023C4E90213024B23615A
:10438000204610BDB865020803009001B0F908305E
:1043900010B5B0F904405B429C420BDBF02C09DC09
:1043A000B0F90A30B0F906205B429A4202DBB2F55E
:1043B000A07F05DD04230382436A4382002010BDF1
:1043C000438A591A09B200294182F7DC83891C44C7
:1043D000C38984801A44436AC28043820120EEE785
:1043E00010B5034B0360044600F05DF8204610BD95
:1043F000CC65020810B50446FFF7F2FF20462021E5
:104400001EF014FE204610BD10B5044600F056F80C
:10441000084B23604FF4167246F2A813C4E9062332
:104420004FF020110022C4E90212034A2261A38244
:10443000204610BDCC65020803005802B0F90830D0
:10444000B0F904205B429A4210B508DBF02A06DC82
:10445000B0F90A30B0F906405B429C4207DA042307
:104460000382C369838283694382002010BD438A2B
:10447000591A09B200294182F7DC83891A44C38999
:1044800082801C448369C48043820120EEE7838AD2
:10449000591A09B20029D8BFC3698182DABF838261
:1044A00001200020704770470020704710B5182188
:1044B00004461EF0BBFD204610BD0000034A02600A
:1044C000032202824FF0201282607047E0650208EA
:1044D000018270478180C28070478181C2817047AC
:1044E000B0F90420B0F9083010B5B1F90440134414
:1044F000A34215DDB1F9083023449A4210DAB0F92D
:104500000630B0F90A20B1F906401A44A24207DD8C
:10451000B1F90A2022449342ACBF0020012010BD13
:104520000020FCE710B5054B0360002304468380A0
:10453000083000F033F8204610BD00BFF4650208D3
:10454000838819448180704710B5044B044640F8B5
:10455000083B00F00FF8204610BD00BFF4650208CC
:1045600010B50446FFF7F0FF204630211EF05EFD37
:10457000204610BD10B5034B03600446FFF793FFC0
:10458000204610BD0466020810B50446FFF7F2FF8E
:10459000204628211EF04AFD204610BD10B50446D5
:1045A000FFF78CFF03210A480A4B2162A1844FF0D8
:1045B0001C11C4E9010142F21072236000214FF482
:1045C000C873C4E90632E160A2826382204610BD4E
:1045D0006800040104660208438A591A09B20029D6
:1045E00041821FDC82888389C1891A44C38812B240
:1045F0000B441BB281698280002AC380418207DAA2
:1046000000228280002B07DA0023C380012070473C
:10461000D02AF7DDD022F4E7B3F5907FF6DD4FF432
:104620009073F2E700207047838A591A09B2002973
:10463000D8BFC3698182DABF83820120002070471E
:10464000838C5B1A8384704781817047C181704776
:104650002DE9F347DFF8A4A0274CDAF80030DFF8A3
:10466000A0901B1A0546CAF8003014264FF0000827
:10467000B4F91030032B0AD029462046FFF7DEFE9E
:10468000013E04F12004F3D102B0BDE8F087DAF86E
:104690000030002BF4DC01A94846CDF8048002F07C
:1046A00049FC08B1CDF80480019B03F0030203F438
:1046B0008073002B02F1FF334FF6E0714FF6FF7766
:1046C0000CBFF0210127022B9DBF013202EB8202B9
:1046D000D2002A222046FFF7FDFE0022394620465E
:1046E000FFF7FBFE02212046FFF7F2FE42F21073B5
:1046F000CAF80030C4E700BF542400202000002086
:10470000602100202DE9F843014606461348144C69
:10471000DFF85080DFF85090FFF786FF04F5C87788
:104720000546B4F91030032B08D031462046FFF778
:104730002DFE2834BC42F4D1BDE8F88365B1B8F849
:104740000020B9F80010103A204692B2FFF7C2FEDE
:1047500002212046FFF7BCFE0025EAE7FC290020E5
:10476000642800204C2400204E2400202DE9F8432A
:10477000274B284E1A68284B1B68022B08BF0132B2
:10478000642AA8BF642207464FF000094FF02808AA
:1047900095B2B6F91030012B10D139463046FFF7EB
:1047A00076FE58B11D4A00231446B2F910100329B1
:1047B0001BD001330A2B02F12802F6D109F10109BD
:1047C000B9F1140F06F12006E3D1144C0A25B4F90F
:1047D0001030012B03D139462046FFF7D7FD013DAC
:1047E00004F12804F3D1BDE8F883F288B18808FB0E
:1047F00003441032204692B2FFF76CFE20462A4650
:104800000021FFF76AFE02212046FFF761FED5E78F
:1048100018000020542400201C000020D426002072
:104820002DE9F04FDFF87C82DFF87C92002485B020
:1048300088F8004089F800408D4B4FF6CE72E6189C
:1048400011463046FFF746FE8A4B4FF6CE72E5180A
:1048500011462846FFF73EFE4FF6FB720021304618
:10486000FFF73BFE052200212846FFF736FE032115
:104870003046FFF72DFE283403212846FFF728FE97
:10488000B4F5C87FD8D17C4F00253C464FF6CE7298
:1048900011462046FFF71EFE013520460321FFF793
:1048A00017FE142D04F12004F0D1744C0026744836
:1048B000012101F00FF9012806F1010608D1714A22
:1048C0001368622B04DC0233C820136003F0B0F9D4
:1048D00098F800304BB199F80030002BE7D06A4BC4
:1048E00001221A7005B0BDE8F08F012ED4BF184622
:1048F0001E46664BA289664D1A80664BE2891A8075
:10490000C8BF01202870FFF7A3FE29786248FFF78F
:1049100063FE2878FFF7F6FE2878FFF727FF5E4949
:104920003D464FF0000AB5F910B0BBF1010F7FD141
:104930002846FFF7D5FD5849002879D056485946F2
:10494000FFF77EFE04212846FFF7C2FD52484FF4D0
:1049500082726821FFF7BEFD3D464FF0140AB5F99B
:104960001030012B2AD1DFF808B10A22BBF9103030
:104970000093012B65D1594628460192FFF7B0FDFF
:10498000019A00285DD004212846FFF7A1FD0421EB
:104990005846FFF79DFD05212046FFF7D1FD009AFF
:1049A0003E484FF4005101F09BF8322003F040F9EB
:1049B0003A4800224FF4005101F092F8BAF1010A8E
:1049C00005F12005CBD12B4D33494FF00A0AB5F93B
:1049D00010B0BBF1010F39D12846FFF781FD2E49F8
:1049E000A0B32D485946FFF72BFE04212846FFF7B8
:1049F0006FFD29484FF482726821FFF76BFDB4F90F
:104A00002C30002B28DC0124254D88F8004099F833
:104A10000030002B7FF463AF28688DF80F401A46F2
:104A20000DF10F0103F0F3F9322003F001F9EEE785
:104A30000AF1010ABAF1140F05F120057FF473AFF2
:104A40008AE7013A0BF1280B90D1B7E7BAF1010AD6
:104A500005F12805BBD1D2E7302311488DF80F307E
:104A600000231A460DF10F01006803F0D0F91EE78C
:104A700064280020D426002054240020F42900209B
:104A80000000024018000020502400204E24002086
:104A9000482400204C240020FC290020001802405B
:104AA000B82000204A2400204924002070B5214C61
:104AB00000254FF6CE7211462046FFF70BFD01355B
:104AC00020460321FFF704FD142D04F12004F0D14A
:104AD000194E0024A5194FF6CE7211462846FFF74D
:104AE000F9FC2846154D0321FFF7F2FC25444FF64B
:104AF000CE7211462846FFF7EDFC283403212846E4
:104B0000FFF7E6FCB4F5C87FE4D10D4C0D4BE36034
:104B1000002104F10800FFF797FD002104F10800CF
:104B2000FFF794FD084A00231360084A1370084AEF
:104B3000137070BD5424002064280020D426002067
:104B4000F42900206400C800200000204A2400202E
:104B50004924002038B50F480F4DFFF7E3FC00242F
:104B600028192834FFF7FCFBB4F5C87FF8D10B4DAA
:104B7000002428192834FFF7F3FBB4F5C87FF8D1D7
:104B8000074D002428192034FFF73EFCB4F5207FA0
:104B9000F8D138BDF429002064280020D426002054
:104BA00054240020174838B51524013CA0F12005F5
:104BB00013D115480B24013CA0F1280515D1134849
:104BC0000B24013CA0F1280517D0D0F8683100F57E
:104BD000B4705B6898472846F3E7D5F8803200F553
:104BE00018705B6898472846DFE7D5F8903100F5E4
:104BF000B4705B6898472846DDE7BDE83840044854
:104C0000FFF7A2BC54240020D426002064280020F2
:104C1000F4290020F02070474FF4A070704729203D
:104C2000FDF72EB92820FDF72BB908B5FDF7FCF8E4
:104C3000CA20FDF725F9C320FDF706F90820FDF786
:104C400003F95020FDF700F9CF20FDF719F90020F6
:104C5000FDF7FAF8C120FDF7F7F83020FDF7F4F87A
:104C6000ED20FDF70DF96420FDF7EEF80320FDF7C8
:104C7000EBF81220FDF7E8F88120FDF7E5F8E820D1
:104C8000FDF7FEF88520FDF7DFF80020FDF7DCF8E2
:104C90007820FDF7D9F8CB20FDF7F2F83920FDF7A1
:104CA000D3F82C20FDF7D0F80020FDF7CDF8342004
:104CB000FDF7CAF80220FDF7C7F8F720FDF7E0F886
:104CC0002020FDF7C1F8EA20FDF7DAF80020FDF713
:104CD000BBF80020FDF7B8F8B120FDF7D1F80020AF
:104CE000FDF7B2F81B20FDF7AFF8B620FDF7C8F8C6
:104CF0000A20FDF7A9F8A220FDF7A6F8C020FDF7CD
:104D0000BFF81020FDF7A0F8C120FDF7B9F810207A
:104D1000FDF79AF8C520FDF7B3F84520FDF794F8A4
:104D20001520FDF791F8C720FDF7AAF89020FDF7B0
:104D30008BF83620FDF7A4F8C820FDF785F8F2209F
:104D4000FDF79EF80020FDF77FF8B020FDF798F8FA
:104D5000C220FDF779F8B620FDF792F80A20FDF79A
:104D600073F8A720FDF770F82720FDF76DF80420F1
:104D7000FDF76AF82A20FDF783F80020FDF764F8B4
:104D80000020FDF761F80020FDF75EF8EF20FDF749
:104D90005BF82B20FDF774F80020FDF755F8002094
:104DA000FDF752F80120FDF74FF83F20FDF74CF8D2
:104DB000F620FDF765F80120FDF746F80020FDF725
:104DC00043F80620FDF740F82C20FDF759F8C820DD
:104DD000FDF7A4F82620FDF753F80120FDF734F87D
:104DE000E020FDF74DF80F20FDF72EF82920FDF704
:104DF0002BF82420FDF728F80C20FDF725F80E20CD
:104E0000FDF722F80920FDF71FF84E20FDF71CF8EA
:104E10007820FDF719F83C20FDF716F80920FDF77A
:104E200013F81320FDF710F80520FDF70DF81720F3
:104E3000FDF70AF81120FDF707F80020FDF704F848
:104E4000E120FDF71DF80020FCF7FEFF1620FCF71F
:104E5000FBFF1B20FCF7F8FF0420FCF7F5FF1120F7
:104E6000FCF7F2FF0720FCF7EFFF3120FCF7ECFF27
:104E70003320FCF7E9FF4220FCF7E6FF0520FCF7B2
:104E8000E3FF0C20FCF7E0FF0A20FCF7DDFF282001
:104E9000FCF7DAFF2F20FCF7D7FF0F20FCF7D4FF39
:104EA0001120FCF7EDFFC820FDF738F82920FCF7AA
:104EB000E7FFBDE808402C20FCF7E2BF08B5FCF78F
:104EC000B3FF0321D320FCF7F7FF80B208BD10B574
:104ED000C4B2022203212046FCF75CFF0A20FCF743
:104EE000A1FF204600220321FCF754FFBDE810403B
:104EF0000220FCF797BF38B50446E4B2FCF748FF40
:104F000000212046FCF75EFF012105462046FCF704
:104F100059FF40EA052080B238BD10B5C4B2402127
:104F20002046FCF74FFF030607D54C212046FCF72F
:104F300049FF003818BF012010BD01224B21204637
:104F4000FCF728FF204600224B21FCF723FF00201E
:104F5000F2E773B50423C4B20E461546D7210DEB14
:104F600003022046FCF748FF019B1BBA1A0DC3F34E
:104F70000B23328020462B8001224B21FCF70AFFB5
:104F800000224B212046FCF705FF02B070BD000057
:104F900010B50A4A1378984204460DD051788842D9
:104FA0000AD00BB141B90123D454FCF7F1FE2046DD
:104FB000BDE81040FFF78BBF10BD00BF242A0020C2
:104FC00010B5C4B209212046FCF7FCFE40F00102F6
:104FD000D2B220460921BDE81040FCF7DBBE10B577
:104FE000C4B209212046FCF7EDFE092100F0FE02C3
:104FF0002046BDE81040FCF7CDBE38B5C4B20D4622
:1050000020460A21FCF7DEFE40EA0502D2B2204625
:105010000A21BDE83840FCF7BDBE10B50446FCF7D8
:10502000B8FE20461F21FFF7E8FF2046BDE81040EC
:10503000FFF7C6BF38B5C4B20D4620460A21FCF7BB
:10504000C1FE20EA0502D2B220460A21BDE838405E
:10505000FCF7A0BE10B50446FFF7C1FF20461F2194
:10506000BDE81040FFF7E6BF10B5C0B20C460B21FB
:10507000FCF7A8FE204010BD1F21FFF7F5BF0A4630
:10508000C0B20B21FCF786BE1F21FFF7F8BF38B571
:10509000C4B20D4620461721FCF794FE20EA050213
:1050A000D2B220461721BDE83840FCF773BE70B578
:1050B000C4B2064604212046FCF784FE042100F019
:1050C000FB0205462046FCF765FE3046F021FFF75F
:1050D000DEFF05F0F80220460421FCF75BFE4922C2
:1050E00020212046FCF756FE0220FCF79BFE2046BE
:1050F00001222121FCF74EFE20469A224121FCF795
:1051000049FE204601224A21FCF744FE20460122A6
:105110004B21FCF73FFE204600224B21FCF73AFED4
:10512000204601225621FCF735FE20460122582157
:10513000FCF730FE204601224021FCF72BFE2046E2
:10514000FF220B21FCF726FEBDE870400220FCF791
:1051500069BE0000054BD3F8882042F47002C3F802
:1051600088204FF000629A60704700BF00ED00E0B9
:1051700008B50B4B1A6842F400721A601A6842F4C0
:1051800080621A601A6842F480721A60032000F08C
:1051900061FA0020FDF76CF9FCF7CEFE002008BD97
:1051A000003C0240034A044B11681B780B44136017
:1051B000704700BF282A002088000020014B186893
:1051C000704700BF282A002038B50446FFF7F6FFD5
:1051D000631C1CBF054B1B78054618BFE418FFF77E
:1051E000EDFF431BA342FAD338BD00BF8800002067
:1051F00038B50446002800F09B80056C25B9FCF703
:10520000BBFE656484F83C50236CDB0600F18E80A5
:10521000236C23F4885323F0020343F00203236436
:10522000444B5A6822F440325A605A6861680A4313
:105230005A60236821695A6822F480725A605A6859
:1052400042EA01225A605A68A16822F040725A600C
:105250005A680A435A609A68E16822F400629A60C8
:105260009A680A439A603449A26A8A4252D099687D
:1052700021F07061996099680A439A609A68E16ABE
:1052800022F040529A609A680A439A609A6822F023
:1052900002029A609A68217E42EA41029A6094F87A
:1052A0002020002A3ED05A68616A42F400625A60A7
:1052B0005A6822F460425A605A68013942EA41321F
:1052C0005A60DA6AE16922F47002DA62DA6A013954
:1052D00042EA0152DA629A6822F400729A609A688D
:1052E00094F8301042EA41229A609A68616922F487
:1052F00080629A609A68002042EA81229A60606423
:10530000236C23F0030343F001032364002384F898
:105310003C3038BD9A6822F070629A609A6822F038
:105320004052B2E75A6822F40062C9E70120EDE773
:105330000120EEE7002301400100000F82B00023AE
:10534000019390F83C30012B69D0012380F83C3068
:1053500003689A68D2070BD59A68D1071AD4036CF0
:1053600043F010030364436C43F0010343644CE0D7
:105370009A682C4942F001029A602B4A1268B2FBEB
:10538000F1F202EB42020192019A002AE4D0019A62
:10539000013AF8E7026C22F4E06222F0010242F4E2
:1053A000807202645A68520541BF026C22F4405276
:1053B00042F480520264026C12F480521CBF426CB0
:1053C00022F006024264002280F83C206FF02202A4
:1053D0001A60164A516811F01F0F15491CD18B42F3
:1053E00007D001F580718B420CD1526812F01F0F6B
:1053F0000BD19A6812F0405F07D19A6842F0804260
:105400009A6002E00B498B4202D0002002B0704744
:10541000526812F0100FEBE78B42F6D1E9E7022059
:10542000F4E700BF40420F00840000200023014049
:10543000002001400022014090F83C30012B14D0A4
:1054400003689A6822F001029A609B68DB0707D420
:10545000036C23F4885323F0010343F00103036436
:10546000002380F83C3018467047022070470368DC
:105470009A68520570B504460D460BD59B68DE054B
:1054800008D5036C43F020030364002380F83C300C
:10549000012070BDFFF792FE064623681A68910747
:1054A0000CD56FF012021A60226C42F40072226472
:1054B0009A6812F0405F17D00020EAE7681CEDD030
:1054C00065B923681B6813F00203E6D1226C84F8E7
:1054D0003C3042F0040222640320DAE7FFF76EFE5C
:1054E000801BA842EDD8D8E7227E002AE4D1DA6AF0
:1054F00012F4700F02D09B685A05DDD4236C23F49C
:1055000080732364236CDB04D6D4236C43F0010343
:105510002364D1E70368D86C70470000F7B5002317
:10552000019390F83C30012B054600F08680012362
:1055300080F83C3008682B688E68092884B233D91B
:1055400004EB4402DF681E3A4FF0070C0CFA02FC31
:1055500027EA0C07DF60DF6806FA02F23A43DA60F6
:105560004968062901EB81022DD8596B053A1F269F
:10557000964021EA06015963596B04FA02F20A4384
:105580005A632F4A93420AD1122837D12D4B5A68B9
:1055900022F400025A605A6842F480025A600020E5
:1055A00085F83C0003B0F0BD1A6900EB400C0727FA
:1055B00007FA0CF722EA07021A611A6906FA0CF6D2
:1055C00016431E61CCE70C294FF01F010BD81E6B50
:1055D000233A914026EA01011963196B04FA02F299
:1055E0000A431A63CDE7DE6A413A914026EA010197
:1055F000D962D96A94400C43DC62C2E7124B9842EC
:1056000001D01128CBD10F4B5A6822F480025A6086
:105610005A6842F400025A600B4B9842BFD10B4BC0
:105620000B4A1B68B3FBF2F30A2253430193019B1D
:10563000002BB4D0019B013BF8E70220B2E700BF8A
:1056400000200140002301401200001084000020CF
:1056500040420F000749CA6822F4E06203021204C4
:1056600003F4E063120C134343F0BF6343F40033CD
:10567000CB60704700ED00E0164B30B5DC68C4F33A
:105680000224C4F10703251D042B28BF0423062D83
:105690004FF0FF358CBF033C002405FA03F321EAE9
:1056A0000303A54022EA0502A340002843EA0203BF
:1056B000ACBF00F16040084A4FEA0313B8BF00F0E6
:1056C0000F00DBB2AABF00F56140135480F800332D
:1056D00030BD00BF00ED00E014ED00E0002807DB66
:1056E000044A4109012300F01F00834042F82130A1
:1056F000704700BF00E100E010B5044650B14379A7
:1057000003F0FF0213B90271FCF786FC01236371F9
:10571000002010BD0120FCE710B5044620B390F82E
:10572000393003F0FF021BB980F83820FCF78CFCFD
:10573000022384F83930236861681A6822F4403201
:105740000A431A605A6BA16822F007020A435A639F
:105750001A6CE1686FF30D020A431A6400200123FA
:10576000E06384F8393010BD0120FCE770477047D2
:10577000036870B55E681D68F207044614D5E90534
:1057800012D51A6822F480721A60C26B42F00102CC
:10579000C26301229A60042380F83930002380F824
:1057A0003830436903B19847B20616D5AB0414D517
:1057B00023681A6822F400521A6020229A60E36B70
:1057C00043F00203E363042384F83930002384F8B0
:1057D000383063690BB120469847300716D5290544
:1057E00014D523681A6822F400621A6008229A60AD
:1057F000E36B43F00403E363042384F839300023AC
:1058000084F8383063690BB12046984772070BD58E
:105810006B0509D523681A6822F480621A60042295
:105820009A602046FFF7A2FFB00714D5A90512D54C
:1058300023681A6822F400721A6002229A60E36BED
:10584000E363012384F83930002384F83830236976
:105850000BB120469847F20613D5EB0411D5236807
:105860001A6822F480521A6010229A60E36BE36394
:10587000012384F83930002384F838302046FFF7BC
:1058800076FF70BDF0B590F83820012A03464FF03E
:1058900002002BD0012283F8382083F8390003EB73
:1058A0000112D2E90740556A174F44EA0040093C0B
:1058B000012C9CBF05F07F4210434FEA01161A6885
:1058C00088BF40EA056091B9516A3940014351628D
:1058D000012C9969916103D8596A21F07F41916245
:1058E0000122002083F8392083F83800F0BDD16907
:1058F00039400143D1619919012C896911619CBF1B
:1059000025F07F451562EBE7F0FFFC002DE9F74F2E
:10591000DFF8BC916C4A00230D6801249C4004EA26
:105920000506AC4340F0B7804D68032705F003043B
:105930004FEA430807FA08FC671E012F6FEA0C0CB8
:1059400034D8876807EA0C0ECF6807FA08F747EAE9
:105950000E078760476827EA060EC5F300179F40C9
:1059600047EA0E074760C76807EA0C0E8F6807FA18
:1059700008F747EA0E07022CC76019D14FEAD30A8D
:1059800000EB8A0A03F0070BDAF820704FEA8B0B62
:105990004FF00F0E0EFA0BFE27EA0E0E0F6907FAF4
:1059A0000BF747EA0E07CAF8207001E0032CDAD1A2
:1059B000076804FA08F407EA0C073C4315F4403F73
:1059C000046068D000240194D9F8444044F4804431
:1059D000C9F84440D9F8444023F0030707F1804751
:1059E00004F4804407F59C37019403F0030C019CF8
:1059F000D7F808E04FEA8C0C0F2404FA0CF42EEAD6
:105A0000040E324CA0424DD004F58064A0424BD02D
:105A100004F58064A04249D004F58064A04247D0D8
:105A200004F58064A04245D004F58064A04243D0D0
:105A300004F58064A04241D004F58064A0423FD0C8
:105A400004F58064A0423DD004F58064A04214BFF8
:105A50000A24092404FA0CF444EA0E04BC60946895
:105A6000F74315F4801F0CBF3C4034439460D46866
:105A700015F4001F0CBF3C403443D460546815F447
:105A8000003F0CBF3C40344354601468ED0354BFE6
:105A90003C40344314600133102B7FF43DAF03B01E
:105AA000BDE8F08F0024D5E70124D3E70224D1E735
:105AB0000324CFE70424CDE70524CBE70624C9E778
:105AC0000724C7E70824C5E7003C01400000024066
:105AD000003802400369194214BF012000207047BA
